:020000040800F2
:100000008006002099010008A1010008A301000852
:10001000A5010008A7010008A901000800000000D0
:10002000000000000000000000000000AB0100081C
:10003000AD01000800000000AF01000881030008C6
:10004000B3010008B3010008B3010008B3010008C0
:10005000B3010008B3010008B3010008B3010008B0
:10006000B3010008B3010008B3010008B3010008A0
:10007000B3010008B3010008B3010008B301000890
:10008000B3010008B3010008B3010008B301000880
:10009000B3010008B3010008B3010008B301000870
:1000A000B3010008B3010008B3010008B301000860
:1000B000B3010008B301000825040008B3010008DB
:1000C000B3010008B3010008B3010008B301000840
:1000D000B3010008B3010008B5040008B30100082B
:1000E000B3010008B3010008B301000800F002F8F2
:1000F00000F042F814A696E8000CB244B344DA4586
:1001000001D100F039F8BAE80F000FA696E83000E8
:10011000A5EB040504EB0607AAEB0704A7F101070A
:100120004FEA15154FEA3414A4F10104AC4201D38F
:1001300000F022F813F0010F18BFFB1A43F001037F
:1001400000F001F8DBE71847E4060000F4060000C1
:10015000704700000023002400250026103A28BF25
:1001600078C1FBD8520728BF30C148BF0B60704729
:100170001FB51FBD10B510BD00F031F81146FFF7D7
:10018000F7FF00F06FFA00F04FF803B4FFF7F2FF4B
:1001900003BC00F057F800000948804709480047B1
:1001A000FEE7FEE7FEE7FEE7FEE7FEE7FEE7FEE727
:1001B000FEE7FEE704480549054A064B7047000084
:1001C000BD030008ED00000880000020800600202C
:1001D00080020020800200207047704770477546FB
:1001E00000F02CF8AE4605006946534620F00700A3
:1001F000854618B020B5FFF7DDFFBDE820404FF081
:1002000000064FF000074FF000084FF0000BAC461F
:10021000ACE8C009ACE8C009ACE8C009ACE8C0096A
:1002200021F007018D46704710B50446AFF30080FA
:100230002046BDE81040FFF7A8BF00000048704707
:100240000000002001491820ABBEFEE72600020096
:100250007047000080B500F001F880BD84B0002038
:100260000390029041F20001C4F20201086840F4D8
:1002700080300860FFE741F20000C4F2020000682D
:1002800000F400300290039801300390FFE70299D8
:100290000020019039B9FFE70398B0F5A06018BFBE
:1002A00001200190FFE70198C0070028E3D1FFE794
:1002B00041F20000C4F2020000688003002803D568
:1002C000FFE70120029002E000200290FFE7029881
:1002D000012851D1FFE742F20001C4F2020108688F
:1002E00040F010000860086820F007000860086807
:1002F00040F00200086041F20401C4F202010091E2
:100300000868086008680860086840F48060086051
:10031000086820F47C100860086840F4E810086061
:1003200041F20001C4F20201086840F080700860E8
:10033000FFE741F20000C4F20200006880010028DB
:1003400001D4FFE7F5E741F20401C4F202010868B5
:1003500020F003000860086840F002000860FFE732
:1003600041F20400C4F20200006800F00C0008280A
:1003700001D0FFE7F4E700E0FFE704B070470000BA
:1003800040F27000C2F200000168013101600068B3
:1003900040F27801C2F200010968401A0B280CD320
:1003A000FFE740F60C01C4F201010020086040F6AE
:1003B0000C41C4F201010860FFE7704780B541F2CB
:1003C0000002C4F20202106840F00100106041F225
:1003D0000401C4F2020108680023CFF6FF031840AD
:1003E000086010684FF6FF73CFF6F6631840106090
:1003F000106820F480201060086820F4FE00086077
:1004000041F20801C4F202014FF41F000860FFF737
:1004100021FF4EF60851CEF200014FF00060086057
:1004200080BD000040F27C00C2F200000068C8B944
:10043000FFE740F63800C4F20000008840F2600197
:10044000C2F20001086040F62001C4F200010888F1
:1004500040F02000088040F27C01C2F2000101203F
:1004600008601EE040F63800C4F20000008840F248
:100470006401C2F20001086040F62001C4F20001EC
:10048000088820F02000088040F27C01C2F20001C0
:100490000020086040F26C01C2F2000101200860F7
:1004A000FFE740F61001C4F20001088820F00400C4
:1004B0000880704781B044F20440C4F20000018813
:1004C00040F26800C2F20000017000786438014612
:1004D00000910E2800F26F800099DFE801F0216C96
:1004E000086C6C6C6C6C3A6C6C6C6C6C530040F609
:1004F0001001C4F2010140F21110086040F61041F1
:10050000C4F201014FF48040086040F27000C2F272
:100510000000006840F27801C2F2000108604AE081
:1005200040F61001C4F2010140F22220086040F6BA
:100530001041C4F201014FF40040086040F2700025
:10054000C2F20000006840F27801C2F200010860C7
:1005500031E040F61001C4F2010140F212200860BF
:1005600040F61041C4F201014FF48040086040F2AF
:100570007000C2F20000006840F27801C2F200018F
:10058000086018E040F61001C4F2010140F22110A9
:10059000086040F61041C4F201014FF400400860C9
:1005A00040F27000C2F20000006840F27801C2F22E
:1005B00000010860FFE701B07047000081B08DF8CE
:1005C00003009DF9030000280ED4FFE79DF90310F6
:1005D00001F01F02012090404A094EF20011CEF2B4
:1005E000000141F82200FFE701B0704741F2180115
:1005F000C4F20201086840F00D00086040F60001F6
:10060000C4F2010100200860086848F63332C0F2E5
:1006100033321043086040F60401C4F20101086857
:1006200020F0FF000860086840F03300086040F6E2
:100630000041C4F2010108686FF31F3008600868C8
:100640000022C8F630321043086040F60441C4F27C
:100650000101086820F07F400860086840F04C50B5
:100660000860704780B582B00020019000F0A2F8C9
:10067000FFF7BCFF00F058F800F0B6F8FFE740F2D3
:100680006C00C2F20000006800284CD0FFE740F286
:100690006400C2F20000006840F26001C2F2000192
:1006A0000968411A4CF60930C8F63D5081FB00201C
:1006B0000144481100EBD17140F27400C2F2000015
:1006C00001600068092825DCFFE740F61001C4F24C
:1006D0000101402008600020CFF6BF70086040F69E
:1006E0000C42C4F201020020106040F22220086097
:1006F00040F61041C4F201014FF40040086040F29E
:100700007000C2F20000006840F27801C2F20001FD
:10071000086007E040F61001C4F201014FF48000C8
:100720000860FFE7FFE7AAE780B541F21C01C4F2C9
:100730000201086840F00400086072B640F6240127
:10074000C4F200010020088040F62801C4F2000134
:100750004720088040F62C01C4F200014EF65F20CD
:10076000088040F61801C4F20001088840F4B07017
:10077000088040F63401C4F200010A20088040F6E7
:100780002001C4F200011120088040F60C01C4F2DF
:100790000001088840F00400088040F60001C4F21F
:1007A0000001088840F0010008801E20FFF706FFC6
:1007B00062B680BD72B64EF21001CEF2000100208A
:1007C00008604EF21802CEF2000210604EF21402DF
:1007D000CEF200024AF2FF10C0F24A401060072039
:1007E000086062B67047000080B572B641F21C0125
:1007F000C4F20201086840F40030086044F2084185
:10080000C4F2000140F23910088044F20C41C4F2F5
:100810000001088840F02C000880088840F400504F
:1008200008802620FFF7CAFE62B680BD3C0800089B
:0C083000000000208006000054010008B9
:040000050800019955
:00000001FF
